{
  "address": "0x306BA4cd63610c529f04041b7F86c622d12aA326",
  "abi": [
    {
      "inputs": [
        {
          "internalType": "address",
          "name": "priceFeedAddress",
          "type": "address"
        },
        {
          "internalType": "string",
          "name": "lowSvg",
          "type": "string"
        },
        {
          "internalType": "string",
          "name": "highSvg",
          "type": "string"
        },
        {
          "internalType": "uint256",
          "name": "mintFee",
          "type": "uint256"
        }
      ],
      "stateMutability": "nonpayable",
      "type": "constructor"
    },
    {
      "inputs": [
        {
          "internalType": "uint256",
          "name": "sent",
          "type": "uint256"
        },
        {
          "internalType": "uint256",
          "name": "required",
          "type": "uint256"
        }
      ],
      "name": "DynamicSvgNft__YouRequireMoreMinerals",
      "type": "error"
    },
    {
      "anonymous": false,
      "inputs": [
        {
          "indexed": true,
          "internalType": "address",
          "name": "owner",
          "type": "address"
        },
        {
          "indexed": true,
          "internalType": "address",
          "name": "approved",
          "type": "address"
        },
        {
          "indexed": true,
          "internalType": "uint256",
          "name": "tokenId",
          "type": "uint256"
        }
      ],
      "name": "Approval",
      "type": "event"
    },
    {
      "anonymous": false,
      "inputs": [
        {
          "indexed": true,
          "internalType": "address",
          "name": "owner",
          "type": "address"
        },
        {
          "indexed": true,
          "internalType": "address",
          "name": "operator",
          "type": "address"
        },
        {
          "indexed": false,
          "internalType": "bool",
          "name": "approved",
          "type": "bool"
        }
      ],
      "name": "ApprovalForAll",
      "type": "event"
    },
    {
      "anonymous": false,
      "inputs": [
        {
          "indexed": true,
          "internalType": "uint256",
          "name": "tokenId",
          "type": "uint256"
        },
        {
          "indexed": false,
          "internalType": "int256",
          "name": "highValue",
          "type": "int256"
        }
      ],
      "name": "CreatedNFT",
      "type": "event"
    },
    {
      "anonymous": false,
      "inputs": [
        {
          "indexed": true,
          "internalType": "address",
          "name": "previousOwner",
          "type": "address"
        },
        {
          "indexed": true,
          "internalType": "address",
          "name": "newOwner",
          "type": "address"
        }
      ],
      "name": "OwnershipTransferred",
      "type": "event"
    },
    {
      "anonymous": false,
      "inputs": [
        {
          "indexed": true,
          "internalType": "address",
          "name": "from",
          "type": "address"
        },
        {
          "indexed": true,
          "internalType": "address",
          "name": "to",
          "type": "address"
        },
        {
          "indexed": true,
          "internalType": "uint256",
          "name": "tokenId",
          "type": "uint256"
        }
      ],
      "name": "Transfer",
      "type": "event"
    },
    {
      "inputs": [
        {
          "internalType": "address",
          "name": "to",
          "type": "address"
        },
        {
          "internalType": "uint256",
          "name": "tokenId",
          "type": "uint256"
        }
      ],
      "name": "approve",
      "outputs": [],
      "stateMutability": "nonpayable",
      "type": "function"
    },
    {
      "inputs": [
        {
          "internalType": "address",
          "name": "owner",
          "type": "address"
        }
      ],
      "name": "balanceOf",
      "outputs": [
        {
          "internalType": "uint256",
          "name": "",
          "type": "uint256"
        }
      ],
      "stateMutability": "view",
      "type": "function"
    },
    {
      "inputs": [
        {
          "internalType": "uint256",
          "name": "tokenId",
          "type": "uint256"
        }
      ],
      "name": "getApproved",
      "outputs": [
        {
          "internalType": "address",
          "name": "",
          "type": "address"
        }
      ],
      "stateMutability": "view",
      "type": "function"
    },
    {
      "inputs": [],
      "name": "getHighSVG",
      "outputs": [
        {
          "internalType": "string",
          "name": "",
          "type": "string"
        }
      ],
      "stateMutability": "view",
      "type": "function"
    },
    {
      "inputs": [],
      "name": "getLowSVG",
      "outputs": [
        {
          "internalType": "string",
          "name": "",
          "type": "string"
        }
      ],
      "stateMutability": "view",
      "type": "function"
    },
    {
      "inputs": [],
      "name": "getMintFee",
      "outputs": [
        {
          "internalType": "uint256",
          "name": "",
          "type": "uint256"
        }
      ],
      "stateMutability": "view",
      "type": "function"
    },
    {
      "inputs": [],
      "name": "getPriceFeed",
      "outputs": [
        {
          "internalType": "contract AggregatorV3Interface",
          "name": "",
          "type": "address"
        }
      ],
      "stateMutability": "view",
      "type": "function"
    },
    {
      "inputs": [],
      "name": "getTokenCounter",
      "outputs": [
        {
          "internalType": "uint256",
          "name": "",
          "type": "uint256"
        }
      ],
      "stateMutability": "view",
      "type": "function"
    },
    {
      "inputs": [
        {
          "internalType": "address",
          "name": "owner",
          "type": "address"
        },
        {
          "internalType": "address",
          "name": "operator",
          "type": "address"
        }
      ],
      "name": "isApprovedForAll",
      "outputs": [
        {
          "internalType": "bool",
          "name": "",
          "type": "bool"
        }
      ],
      "stateMutability": "view",
      "type": "function"
    },
    {
      "inputs": [
        {
          "internalType": "int256",
          "name": "highValue",
          "type": "int256"
        }
      ],
      "name": "mint",
      "outputs": [],
      "stateMutability": "payable",
      "type": "function"
    },
    {
      "inputs": [],
      "name": "name",
      "outputs": [
        {
          "internalType": "string",
          "name": "",
          "type": "string"
        }
      ],
      "stateMutability": "view",
      "type": "function"
    },
    {
      "inputs": [],
      "name": "owner",
      "outputs": [
        {
          "internalType": "address",
          "name": "",
          "type": "address"
        }
      ],
      "stateMutability": "view",
      "type": "function"
    },
    {
      "inputs": [
        {
          "internalType": "uint256",
          "name": "tokenId",
          "type": "uint256"
        }
      ],
      "name": "ownerOf",
      "outputs": [
        {
          "internalType": "address",
          "name": "",
          "type": "address"
        }
      ],
      "stateMutability": "view",
      "type": "function"
    },
    {
      "inputs": [],
      "name": "renounceOwnership",
      "outputs": [],
      "stateMutability": "nonpayable",
      "type": "function"
    },
    {
      "inputs": [
        {
          "internalType": "address",
          "name": "from",
          "type": "address"
        },
        {
          "internalType": "address",
          "name": "to",
          "type": "address"
        },
        {
          "internalType": "uint256",
          "name": "tokenId",
          "type": "uint256"
        }
      ],
      "name": "safeTransferFrom",
      "outputs": [],
      "stateMutability": "nonpayable",
      "type": "function"
    },
    {
      "inputs": [
        {
          "internalType": "address",
          "name": "from",
          "type": "address"
        },
        {
          "internalType": "address",
          "name": "to",
          "type": "address"
        },
        {
          "internalType": "uint256",
          "name": "tokenId",
          "type": "uint256"
        },
        {
          "internalType": "bytes",
          "name": "data",
          "type": "bytes"
        }
      ],
      "name": "safeTransferFrom",
      "outputs": [],
      "stateMutability": "nonpayable",
      "type": "function"
    },
    {
      "inputs": [
        {
          "internalType": "address",
          "name": "operator",
          "type": "address"
        },
        {
          "internalType": "bool",
          "name": "approved",
          "type": "bool"
        }
      ],
      "name": "setApprovalForAll",
      "outputs": [],
      "stateMutability": "nonpayable",
      "type": "function"
    },
    {
      "inputs": [
        {
          "internalType": "bytes4",
          "name": "interfaceId",
          "type": "bytes4"
        }
      ],
      "name": "supportsInterface",
      "outputs": [
        {
          "internalType": "bool",
          "name": "",
          "type": "bool"
        }
      ],
      "stateMutability": "view",
      "type": "function"
    },
    {
      "inputs": [
        {
          "internalType": "string",
          "name": "svg",
          "type": "string"
        }
      ],
      "name": "svgToImageURI",
      "outputs": [
        {
          "internalType": "string",
          "name": "",
          "type": "string"
        }
      ],
      "stateMutability": "pure",
      "type": "function"
    },
    {
      "inputs": [],
      "name": "symbol",
      "outputs": [
        {
          "internalType": "string",
          "name": "",
          "type": "string"
        }
      ],
      "stateMutability": "view",
      "type": "function"
    },
    {
      "inputs": [
        {
          "internalType": "uint256",
          "name": "tokenId",
          "type": "uint256"
        }
      ],
      "name": "tokenURI",
      "outputs": [
        {
          "internalType": "string",
          "name": "",
          "type": "string"
        }
      ],
      "stateMutability": "view",
      "type": "function"
    },
    {
      "inputs": [
        {
          "internalType": "address",
          "name": "from",
          "type": "address"
        },
        {
          "internalType": "address",
          "name": "to",
          "type": "address"
        },
        {
          "internalType": "uint256",
          "name": "tokenId",
          "type": "uint256"
        }
      ],
      "name": "transferFrom",
      "outputs": [],
      "stateMutability": "nonpayable",
      "type": "function"
    },
    {
      "inputs": [
        {
          "internalType": "address",
          "name": "newOwner",
          "type": "address"
        }
      ],
      "name": "transferOwnership",
      "outputs": [],
      "stateMutability": "nonpayable",
      "type": "function"
    }
  ],
  "transactionHash": "0x0d87d8825c1062ce01a6581af676a5e32084e2e96606683ef81ada7013dfcb96",
  "args": [
    "0xD4a33860578De61DBAbDc8BFdb98FD742fA7028e",
    "<?xml version=\"1.0\" standalone=\"no\"?>\n<svg width=\"1024px\" height=\"1024px\" viewBox=\"0 0 1024 1024\" xmlns=\"http://www.w3.org/2000/svg\">\n  <path fill=\"#333\" d=\"M512 64C264.6 64 64 264.6 64 512s200.6 448 448 448 448-200.6 448-448S759.4 64 512 64zm0 820c-205.4 0-372-166.6-372-372s166.6-372 372-372 372 166.6 372 372-166.6 372-372 372z\"/>\n  <path fill=\"#E6E6E6\" d=\"M512 140c-205.4 0-372 166.6-372 372s166.6 372 372 372 372-166.6 372-372-166.6-372-372-372zM288 421a48.01 48.01 0 0 1 96 0 48.01 48.01 0 0 1-96 0zm376 272h-48.1c-4.2 0-7.8-3.2-8.1-7.4C604 636.1 562.5 597 512 597s-92.1 39.1-95.8 88.6c-.3 4.2-3.9 7.4-8.1 7.4H360a8 8 0 0 1-8-8.4c4.4-84.3 74.5-151.6 160-151.6s155.6 67.3 160 151.6a8 8 0 0 1-8 8.4zm24-224a48.01 48.01 0 0 1 0-96 48.01 48.01 0 0 1 0 96z\"/>\n  <path fill=\"#333\" d=\"M288 421a48 48 0 1 0 96 0 48 48 0 1 0-96 0zm224 112c-85.5 0-155.6 67.3-160 151.6a8 8 0 0 0 8 8.4h48.1c4.2 0 7.8-3.2 8.1-7.4 3.7-49.5 45.3-88.6 95.8-88.6s92 39.1 95.8 88.6c.3 4.2 3.9 7.4 8.1 7.4H664a8 8 0 0 0 8-8.4C667.6 600.3 597.5 533 512 533zm128-112a48 48 0 1 0 96 0 48 48 0 1 0-96 0z\"/>\n</svg>",
    "<svg viewBox=\"0 0 200 200\" width=\"400\"  height=\"400\" xmlns=\"http://www.w3.org/2000/svg\">\n  <circle cx=\"100\" cy=\"100\" fill=\"yellow\" r=\"78\" stroke=\"black\" stroke-width=\"3\"/>\n  <g class=\"eyes\">\n    <circle cx=\"61\" cy=\"82\" r=\"12\"/>\n    <circle cx=\"127\" cy=\"82\" r=\"12\"/>\n  </g>\n  <path d=\"m136.81 116.53c.69 26.17-64.11 42-81.52-.73\" style=\"fill:none; stroke: black; stroke-width: 3;\"/>\n</svg>",
    "10000000000000000"
  ],
  "numDeployments": 1,
  "solcInputHash": "ad7e800b63cf5c0dc8206447e883c19e",
  "bytecode": "0x60c06040523480156200001157600080fd5b50604051620041d0380380620041d08339818101604052810190620000379190620006ad565b6040518060400160405280600f81526020017f44796e616d696320535647204e465400000000000000000000000000000000008152506040518060400160405280600381526020017f44534e00000000000000000000000000000000000000000000000000000000008152508160009081620000b491906200099e565b508060019081620000c691906200099e565b505050620000e9620000dd6200017b60201b60201c565b6200018360201b60201c565b600060078190555080608081815250508373ffffffffffffffffffffffffffffffffffffffff1660a08173ffffffffffffffffffffffffffffffffffffffff16815250506200013e836200024960201b60201c565b600890816200014e91906200099e565b5062000160826200024960201b60201c565b600990816200017091906200099e565b505050505062000c24565b600033905090565b6000600660009054906101000a900473ffffffffffffffffffffffffffffffffffffffff16905081600660006101000a81548173ffffffffffffffffffffffffffffffffffffffff021916908373ffffffffffffffffffffffffffffffffffffffff1602179055508173ffffffffffffffffffffffffffffffffffffffff168173ffffffffffffffffffffffffffffffffffffffff167f8be0079c531659141344cd1fd0a4f28419497f9722a3daafe3b4186f6b6457e060405160405180910390a35050565b606060006040518060400160405280601a81526020017f646174613a696d6167652f7376672b786d6c3b6261736536342c00000000000081525090506000620002be846040516020016200029e919062000ac7565b604051602081830303815290604052620002ed60201b620012131760201c565b90508181604051602001620002d592919062000ae0565b60405160208183030381529060405292505050919050565b60606000825103620003115760405180602001604052806000815250905062000475565b600060405180606001604052806040815260200162004190604091399050600060036002855162000343919062000b37565b6200034f919062000ba1565b60046200035d919062000bd9565b9050600060208262000370919062000b37565b67ffffffffffffffff8111156200038c576200038b6200050e565b5b6040519080825280601f01601f191660200182016040528015620003bf5781602001600182028036833780820191505090505b509050818152600183018586518101602084015b8183101562000430576003830192508251603f8160121c168501518253600182019150603f81600c1c168501518253600182019150603f8160061c168501518253600182019150603f8116850151825360018201915050620003d3565b6003895106600181146200044d57600281146200045e5762000469565b613d3d60f01b600283035262000469565b603d60f81b60018303525b50505050508093505050505b919050565b6000604051905090565b600080fd5b600080fd5b600073ffffffffffffffffffffffffffffffffffffffff82169050919050565b6000620004bb826200048e565b9050919050565b620004cd81620004ae565b8114620004d957600080fd5b50565b600081519050620004ed81620004c2565b92915050565b600080fd5b600080fd5b6000601f19601f8301169050919050565b7f4e487b7100000000000000000000000000000000000000000000000000000000600052604160045260246000fd5b6200054882620004fd565b810181811067ffffffffffffffff821117156200056a57620005696200050e565b5b80604052505050565b60006200057f6200047a565b90506200058d82826200053d565b919050565b600067ffffffffffffffff821115620005b057620005af6200050e565b5b620005bb82620004fd565b9050602081019050919050565b60005b83811015620005e8578082015181840152602081019050620005cb565b60008484015250505050565b60006200060b620006058462000592565b62000573565b9050828152602081018484840111156200062a5762000629620004f8565b5b62000637848285620005c8565b509392505050565b600082601f830112620006575762000656620004f3565b5b815162000669848260208601620005f4565b91505092915050565b6000819050919050565b620006878162000672565b81146200069357600080fd5b50565b600081519050620006a7816200067c565b92915050565b60008060008060808587031215620006ca57620006c962000484565b5b6000620006da87828801620004dc565b945050602085015167ffffffffffffffff811115620006fe57620006fd62000489565b5b6200070c878288016200063f565b935050604085015167ffffffffffffffff81111562000730576200072f62000489565b5b6200073e878288016200063f565b9250506060620007518782880162000696565b91505092959194509250565b600081519050919050565b7f4e487b7100000000000000000000000000000000000000000000000000000000600052602260045260246000fd5b60006002820490506001821680620007b057607f821691505b602082108103620007c657620007c562000768565b5b50919050565b60008190508160005260206000209050919050565b60006020601f8301049050919050565b600082821b905092915050565b600060088302620008307fffffffffffffffffffffffffffffffffffffffffffffffffffffffffffffffff82620007f1565b6200083c8683620007f1565b95508019841693508086168417925050509392505050565b6000819050919050565b60006200087f62000879620008738462000672565b62000854565b62000672565b9050919050565b6000819050919050565b6200089b836200085e565b620008b3620008aa8262000886565b848454620007fe565b825550505050565b600090565b620008ca620008bb565b620008d781848462000890565b505050565b5b81811015620008ff57620008f3600082620008c0565b600181019050620008dd565b5050565b601f8211156200094e576200091881620007cc565b6200092384620007e1565b8101602085101562000933578190505b6200094b6200094285620007e1565b830182620008dc565b50505b505050565b600082821c905092915050565b6000620009736000198460080262000953565b1980831691505092915050565b60006200098e838362000960565b9150826002028217905092915050565b620009a9826200075d565b67ffffffffffffffff811115620009c557620009c46200050e565b5b620009d1825462000797565b620009de82828562000903565b600060209050601f83116001811462000a16576000841562000a01578287015190505b62000a0d858262000980565b86555062000a7d565b601f19841662000a2686620007cc565b60005b8281101562000a505784890151825560018201915060208501945060208101905062000a29565b8683101562000a70578489015162000a6c601f89168262000960565b8355505b6001600288020188555050505b505050505050565b600081905092915050565b600062000a9d826200075d565b62000aa9818562000a85565b935062000abb818560208601620005c8565b80840191505092915050565b600062000ad5828462000a90565b915081905092915050565b600062000aee828562000a90565b915062000afc828462000a90565b91508190509392505050565b7f4e487b7100000000000000000000000000000000000000000000000000000000600052601160045260246000fd5b600062000b448262000672565b915062000b518362000672565b925082820190508082111562000b6c5762000b6b62000b08565b5b92915050565b7f4e487b7100000000000000000000000000000000000000000000000000000000600052601260045260246000fd5b600062000bae8262000672565b915062000bbb8362000672565b92508262000bce5762000bcd62000b72565b5b828204905092915050565b600062000be68262000672565b915062000bf38362000672565b925082820262000c038162000672565b9150828204841483151762000c1d5762000c1c62000b08565b5b5092915050565b60805160a05161353162000c5f60003960008181610c550152610e3e015260008181610b7101528181610cf30152610d1c01526135316000f3fe6080604052600436106101405760003560e01c806376f6056b116100b6578063b88d4fde1161006f578063b88d4fde1461045e578063bdbaae6314610487578063c87b56dd146104a3578063e985e9c5146104e0578063ed28a1221461051d578063f2fde38b1461054857610140565b806376f6056b1461035e5780637a5caab3146103895780638da5cb5b146103b457806395d89b41146103df5780639e87a5cd1461040a578063a22cb4651461043557610140565b806330d871c61161010857806330d871c61461023c57806342842e0e146102795780636352211e146102a25780636e02007d146102df57806370a082311461030a578063715018a61461034757610140565b806301ffc9a71461014557806306fdde0314610182578063081812fc146101ad578063095ea7b3146101ea57806323b872dd14610213575b600080fd5b34801561015157600080fd5b5061016c60048036038101906101679190612023565b610571565b604051610179919061206b565b60405180910390f35b34801561018e57600080fd5b50610197610653565b6040516101a49190612116565b60405180910390f35b3480156101b957600080fd5b506101d460048036038101906101cf919061216e565b6106e5565b6040516101e191906121dc565b60405180910390f35b3480156101f657600080fd5b50610211600480360381019061020c9190612223565b61072b565b005b34801561021f57600080fd5b5061023a60048036038101906102359190612263565b610842565b005b34801561024857600080fd5b50610263600480360381019061025e91906123eb565b6108a2565b6040516102709190612116565b60405180910390f35b34801561028557600080fd5b506102a0600480360381019061029b9190612263565b610935565b005b3480156102ae57600080fd5b506102c960048036038101906102c4919061216e565b610955565b6040516102d691906121dc565b60405180910390f35b3480156102eb57600080fd5b506102f4610a06565b6040516103019190612443565b60405180910390f35b34801561031657600080fd5b50610331600480360381019061032c919061245e565b610a10565b60405161033e9190612443565b60405180910390f35b34801561035357600080fd5b5061035c610ac7565b005b34801561036a57600080fd5b50610373610adb565b6040516103809190612116565b60405180910390f35b34801561039557600080fd5b5061039e610b6d565b6040516103ab9190612443565b60405180910390f35b3480156103c057600080fd5b506103c9610b95565b6040516103d691906121dc565b60405180910390f35b3480156103eb57600080fd5b506103f4610bbf565b6040516104019190612116565b60405180910390f35b34801561041657600080fd5b5061041f610c51565b60405161042c91906124ea565b60405180910390f35b34801561044157600080fd5b5061045c60048036038101906104579190612531565b610c79565b005b34801561046a57600080fd5b5061048560048036038101906104809190612612565b610c8f565b005b6104a1600480360381019061049c91906126cb565b610cf1565b005b3480156104af57600080fd5b506104ca60048036038101906104c5919061216e565b610df0565b6040516104d79190612116565b60405180910390f35b3480156104ec57600080fd5b50610507600480360381019061050291906126f8565b61106a565b604051610514919061206b565b60405180910390f35b34801561052957600080fd5b506105326110fe565b60405161053f9190612116565b60405180910390f35b34801561055457600080fd5b5061056f600480360381019061056a919061245e565b611190565b005b60007f80ac58cd000000000000000000000000000000000000000000000000000000007bffffffffffffffffffffffffffffffffffffffffffffffffffffffff1916827bffffffffffffffffffffffffffffffffffffffffffffffffffffffff1916148061063c57507f5b5e139f000000000000000000000000000000000000000000000000000000007bffffffffffffffffffffffffffffffffffffffffffffffffffffffff1916827bffffffffffffffffffffffffffffffffffffffffffffffffffffffff1916145b8061064c575061064b8261138b565b5b9050919050565b60606000805461066290612767565b80601f016020809104026020016040519081016040528092919081815260200182805461068e90612767565b80156106db5780601f106106b0576101008083540402835291602001916106db565b820191906000526020600020905b8154815290600101906020018083116106be57829003601f168201915b5050505050905090565b60006106f0826113f5565b6004600083815260200190815260200160002060009054906101000a900473ffffffffffffffffffffffffffffffffffffffff169050919050565b600061073682610955565b90508073ffffffffffffffffffffffffffffffffffffffff168373ffffffffffffffffffffffffffffffffffffffff16036107a6576040517f08c379a000000000000000000000000000000000000000000000000000000000815260040161079d9061280a565b60405180910390fd5b8073ffffffffffffffffffffffffffffffffffffffff166107c5611440565b73ffffffffffffffffffffffffffffffffffffffff1614806107f457506107f3816107ee611440565b61106a565b5b610833576040517f08c379a000000000000000000000000000000000000000000000000000000000815260040161082a9061289c565b60405180910390fd5b61083d8383611448565b505050565b61085361084d611440565b82611501565b610892576040517f08c379a00000000000000000000000000000000000000000000000000000000081526004016108899061292e565b60405180910390fd5b61089d838383611596565b505050565b606060006040518060400160405280601a81526020017f646174613a696d6167652f7376672b786d6c3b6261736536342c00000000000081525090506000610908846040516020016108f4919061298a565b604051602081830303815290604052611213565b9050818160405160200161091d9291906129a1565b60405160208183030381529060405292505050919050565b61095083838360405180602001604052806000815250610c8f565b505050565b6000806002600084815260200190815260200160002060009054906101000a900473ffffffffffffffffffffffffffffffffffffffff169050600073ffffffffffffffffffffffffffffffffffffffff168173ffffffffffffffffffffffffffffffffffffffff16036109fd576040517f08c379a00000000000000000000000000000000000000000000000000000000081526004016109f490612a11565b60405180910390fd5b80915050919050565b6000600754905090565b60008073ffffffffffffffffffffffffffffffffffffffff168273ffffffffffffffffffffffffffffffffffffffff1603610a80576040517f08c379a0000000000000000000000000000000000000000000000000000000008152600401610a7790612aa3565b60405180910390fd5b600360008373ffffffffffffffffffffffffffffffffffffffff1673ffffffffffffffffffffffffffffffffffffffff168152602001908152602001600020549050919050565b610acf6117fc565b610ad9600061187a565b565b606060098054610aea90612767565b80601f0160208091040260200160405190810160405280929190818152602001828054610b1690612767565b8015610b635780601f10610b3857610100808354040283529160200191610b63565b820191906000526020600020905b815481529060010190602001808311610b4657829003601f168201915b5050505050905090565b60007f0000000000000000000000000000000000000000000000000000000000000000905090565b6000600660009054906101000a900473ffffffffffffffffffffffffffffffffffffffff16905090565b606060018054610bce90612767565b80601f0160208091040260200160405190810160405280929190818152602001828054610bfa90612767565b8015610c475780601f10610c1c57610100808354040283529160200191610c47565b820191906000526020600020905b815481529060010190602001808311610c2a57829003601f168201915b5050505050905090565b60007f0000000000000000000000000000000000000000000000000000000000000000905090565b610c8b610c84611440565b8383611940565b5050565b610ca0610c9a611440565b83611501565b610cdf576040517f08c379a0000000000000000000000000000000000000000000000000000000008152600401610cd69061292e565b60405180910390fd5b610ceb84848484611aac565b50505050565b7f0000000000000000000000000000000000000000000000000000000000000000341015610d7857347f00000000000000000000000000000000000000000000000000000000000000006040517fc44c69a3000000000000000000000000000000000000000000000000000000008152600401610d6f929190612ac3565b60405180910390fd5b80600a60006007548152602001908152602001600020819055506007547f882d3b5a729a8bb95cf6c0083c99b42ecd9637123d4425bd7b768877fd8af8b082604051610dc49190612afb565b60405180910390a2610dd833600754611b08565b6001600754610de79190612b45565b60078190555050565b6060610dfb82611b26565b610e3a576040517f08c379a0000000000000000000000000000000000000000000000000000000008152600401610e3190612beb565b60405180910390fd5b60007f000000000000000000000000000000000000000000000000000000000000000073ffffffffffffffffffffffffffffffffffffffff1663feaf968c6040518163ffffffff1660e01b815260040160a060405180830381865afa158015610ea7573d6000803e3d6000fd5b505050506040513d601f19601f82011682018060405250810190610ecb9190612c77565b505050915050600060088054610ee090612767565b80601f0160208091040260200160405190810160405280929190818152602001828054610f0c90612767565b8015610f595780601f10610f2e57610100808354040283529160200191610f59565b820191906000526020600020905b815481529060010190602001808311610f3c57829003601f168201915b50505050509050600a60008581526020019081526020016000205482126110085760098054610f8790612767565b80601f0160208091040260200160405190810160405280929190818152602001828054610fb390612767565b80156110005780601f10610fd557610100808354040283529160200191611000565b820191906000526020600020905b815481529060010190602001808311610fe357829003601f168201915b505050505090505b611010611b92565b61104161101b610653565b8360405160200161102d929190612eba565b604051602081830303815290604052611213565b6040516020016110529291906129a1565b60405160208183030381529060405292505050919050565b6000600560008473ffffffffffffffffffffffffffffffffffffffff1673ffffffffffffffffffffffffffffffffffffffff16815260200190815260200160002060008373ffffffffffffffffffffffffffffffffffffffff1673ffffffffffffffffffffffffffffffffffffffff16815260200190815260200160002060009054906101000a900460ff16905092915050565b60606008805461110d90612767565b80601f016020809104026020016040519081016040528092919081815260200182805461113990612767565b80156111865780601f1061115b57610100808354040283529160200191611186565b820191906000526020600020905b81548152906001019060200180831161116957829003601f168201915b5050505050905090565b6111986117fc565b600073ffffffffffffffffffffffffffffffffffffffff168173ffffffffffffffffffffffffffffffffffffffff1603611207576040517f08c379a00000000000000000000000000000000000000000000000000000000081526004016111fe90612f7c565b60405180910390fd5b6112108161187a565b50565b6060600082510361123557604051806020016040528060008152509050611386565b60006040518060600160405280604081526020016134bc60409139905060006003600285516112649190612b45565b61126e9190612fcb565b600461127a9190612ffc565b9050600060208261128b9190612b45565b67ffffffffffffffff8111156112a4576112a36122c0565b5b6040519080825280601f01601f1916602001820160405280156112d65781602001600182028036833780820191505090505b509050818152600183018586518101602084015b81831015611345576003830192508251603f8160121c168501518253600182019150603f81600c1c168501518253600182019150603f8160061c168501518253600182019150603f81168501518253600182019150506112ea565b60038951066001811461135f576002811461136f5761137a565b613d3d60f01b600283035261137a565b603d60f81b60018303525b50505050508093505050505b919050565b60007f01ffc9a7000000000000000000000000000000000000000000000000000000007bffffffffffffffffffffffffffffffffffffffffffffffffffffffff1916827bffffffffffffffffffffffffffffffffffffffffffffffffffffffff1916149050919050565b6113fe81611b26565b61143d576040517f08c379a000000000000000000000000000000000000000000000000000000000815260040161143490612a11565b60405180910390fd5b50565b600033905090565b816004600083815260200190815260200160002060006101000a81548173ffffffffffffffffffffffffffffffffffffffff021916908373ffffffffffffffffffffffffffffffffffffffff160217905550808273ffffffffffffffffffffffffffffffffffffffff166114bb83610955565b73ffffffffffffffffffffffffffffffffffffffff167f8c5be1e5ebec7d5bd14f71427d1e84f3dd0314c0f7b2291e5b200ac8c7c3b92560405160405180910390a45050565b60008061150d83610955565b90508073ffffffffffffffffffffffffffffffffffffffff168473ffffffffffffffffffffffffffffffffffffffff16148061154f575061154e818561106a565b5b8061158d57508373ffffffffffffffffffffffffffffffffffffffff16611575846106e5565b73ffffffffffffffffffffffffffffffffffffffff16145b91505092915050565b8273ffffffffffffffffffffffffffffffffffffffff166115b682610955565b73ffffffffffffffffffffffffffffffffffffffff161461160c576040517f08c379a0000000000000000000000000000000000000000000000000000000008152600401611603906130b0565b60405180910390fd5b600073ffffffffffffffffffffffffffffffffffffffff168273ffffffffffffffffffffffffffffffffffffffff160361167b576040517f08c379a000000000000000000000000000000000000000000000000000000000815260040161167290613142565b60405180910390fd5b611686838383611bcf565b611691600082611448565b6001600360008573ffffffffffffffffffffffffffffffffffffffff1673ffffffffffffffffffffffffffffffffffffffff16815260200190815260200160002060008282546116e19190613162565b925050819055506001600360008473ffffffffffffffffffffffffffffffffffffffff1673ffffffffffffffffffffffffffffffffffffffff16815260200190815260200160002060008282546117389190612b45565b92505081905550816002600083815260200190815260200160002060006101000a81548173ffffffffffffffffffffffffffffffffffffffff021916908373ffffffffffffffffffffffffffffffffffffffff160217905550808273ffffffffffffffffffffffffffffffffffffffff168473ffffffffffffffffffffffffffffffffffffffff167fddf252ad1be2c89b69c2b068fc378daa952ba7f163c4a11628f55a4df523b3ef60405160405180910390a46117f7838383611bd4565b505050565b611804611440565b73ffffffffffffffffffffffffffffffffffffffff16611822610b95565b73ffffffffffffffffffffffffffffffffffffffff1614611878576040517f08c379a000000000000000000000000000000000000000000000000000000000815260040161186f906131e2565b60405180910390fd5b565b6000600660009054906101000a900473ffffffffffffffffffffffffffffffffffffffff16905081600660006101000a81548173ffffffffffffffffffffffffffffffffffffffff021916908373ffffffffffffffffffffffffffffffffffffffff1602179055508173ffffffffffffffffffffffffffffffffffffffff168173ffffffffffffffffffffffffffffffffffffffff167f8be0079c531659141344cd1fd0a4f28419497f9722a3daafe3b4186f6b6457e060405160405180910390a35050565b8173ffffffffffffffffffffffffffffffffffffffff168373ffffffffffffffffffffffffffffffffffffffff16036119ae576040517f08c379a00000000000000000000000000000000000000000000000000000000081526004016119a59061324e565b60405180910390fd5b80600560008573ffffffffffffffffffffffffffffffffffffffff1673ffffffffffffffffffffffffffffffffffffffff16815260200190815260200160002060008473ffffffffffffffffffffffffffffffffffffffff1673ffffffffffffffffffffffffffffffffffffffff16815260200190815260200160002060006101000a81548160ff0219169083151502179055508173ffffffffffffffffffffffffffffffffffffffff168373ffffffffffffffffffffffffffffffffffffffff167f17307eab39ab6107e8899845ad3d59bd9653f200f220920489ca2b5937696c3183604051611a9f919061206b565b60405180910390a3505050565b611ab7848484611596565b611ac384848484611bd9565b611b02576040517f08c379a0000000000000000000000000000000000000000000000000000000008152600401611af9906132e0565b60405180910390fd5b50505050565b611b22828260405180602001604052806000815250611d60565b5050565b60008073ffffffffffffffffffffffffffffffffffffffff166002600084815260200190815260200160002060009054906101000a900473ffffffffffffffffffffffffffffffffffffffff1673ffffffffffffffffffffffffffffffffffffffff1614159050919050565b60606040518060400160405280601d81526020017f646174613a6170706c69636174696f6e2f6a736f6e3b6261736536342c000000815250905090565b505050565b505050565b6000611bfa8473ffffffffffffffffffffffffffffffffffffffff16611dbb565b15611d53578373ffffffffffffffffffffffffffffffffffffffff1663150b7a02611c23611440565b8786866040518563ffffffff1660e01b8152600401611c459493929190613355565b6020604051808303816000875af1925050508015611c8157506040513d601f19601f82011682018060405250810190611c7e91906133b6565b60015b611d03573d8060008114611cb1576040519150601f19603f3d011682016040523d82523d6000602084013e611cb6565b606091505b506000815103611cfb576040517f08c379a0000000000000000000000000000000000000000000000000000000008152600401611cf2906132e0565b60405180910390fd5b805181602001fd5b63150b7a0260e01b7bffffffffffffffffffffffffffffffffffffffffffffffffffffffff1916817bffffffffffffffffffffffffffffffffffffffffffffffffffffffff191614915050611d58565b600190505b949350505050565b611d6a8383611dde565b611d776000848484611bd9565b611db6576040517f08c379a0000000000000000000000000000000000000000000000000000000008152600401611dad906132e0565b60405180910390fd5b505050565b6000808273ffffffffffffffffffffffffffffffffffffffff163b119050919050565b600073ffffffffffffffffffffffffffffffffffffffff168273ffffffffffffffffffffffffffffffffffffffff1603611e4d576040517f08c379a0000000000000000000000000000000000000000000000000000000008152600401611e449061342f565b60405180910390fd5b611e5681611b26565b15611e96576040517f08c379a0000000000000000000000000000000000000000000000000000000008152600401611e8d9061349b565b60405180910390fd5b611ea260008383611bcf565b6001600360008473ffffffffffffffffffffffffffffffffffffffff1673ffffffffffffffffffffffffffffffffffffffff1681526020019081526020016000206000828254611ef29190612b45565b92505081905550816002600083815260200190815260200160002060006101000a81548173ffffffffffffffffffffffffffffffffffffffff021916908373ffffffffffffffffffffffffffffffffffffffff160217905550808273ffffffffffffffffffffffffffffffffffffffff16600073ffffffffffffffffffffffffffffffffffffffff167fddf252ad1be2c89b69c2b068fc378daa952ba7f163c4a11628f55a4df523b3ef60405160405180910390a4611fb360008383611bd4565b5050565b6000604051905090565b600080fd5b600080fd5b60007fffffffff0000000000000000000000000000000000000000000000000000000082169050919050565b61200081611fcb565b811461200b57600080fd5b50565b60008135905061201d81611ff7565b92915050565b60006020828403121561203957612038611fc1565b5b60006120478482850161200e565b91505092915050565b60008115159050919050565b61206581612050565b82525050565b6000602082019050612080600083018461205c565b92915050565b600081519050919050565b600082825260208201905092915050565b60005b838110156120c05780820151818401526020810190506120a5565b60008484015250505050565b6000601f19601f8301169050919050565b60006120e882612086565b6120f28185612091565b93506121028185602086016120a2565b61210b816120cc565b840191505092915050565b6000602082019050818103600083015261213081846120dd565b905092915050565b6000819050919050565b61214b81612138565b811461215657600080fd5b50565b60008135905061216881612142565b92915050565b60006020828403121561218457612183611fc1565b5b600061219284828501612159565b91505092915050565b600073ffffffffffffffffffffffffffffffffffffffff82169050919050565b60006121c68261219b565b9050919050565b6121d6816121bb565b82525050565b60006020820190506121f160008301846121cd565b92915050565b612200816121bb565b811461220b57600080fd5b50565b60008135905061221d816121f7565b92915050565b6000806040838503121561223a57612239611fc1565b5b60006122488582860161220e565b925050602061225985828601612159565b9150509250929050565b60008060006060848603121561227c5761227b611fc1565b5b600061228a8682870161220e565b935050602061229b8682870161220e565b92505060406122ac86828701612159565b9150509250925092565b600080fd5b600080fd5b7f4e487b7100000000000000000000000000000000000000000000000000000000600052604160045260246000fd5b6122f8826120cc565b810181811067ffffffffffffffff82111715612317576123166122c0565b5b80604052505050565b600061232a611fb7565b905061233682826122ef565b919050565b600067ffffffffffffffff821115612356576123556122c0565b5b61235f826120cc565b9050602081019050919050565b82818337600083830152505050565b600061238e6123898461233b565b612320565b9050828152602081018484840111156123aa576123a96122bb565b5b6123b584828561236c565b509392505050565b600082601f8301126123d2576123d16122b6565b5b81356123e284826020860161237b565b91505092915050565b60006020828403121561240157612400611fc1565b5b600082013567ffffffffffffffff81111561241f5761241e611fc6565b5b61242b848285016123bd565b91505092915050565b61243d81612138565b82525050565b60006020820190506124586000830184612434565b92915050565b60006020828403121561247457612473611fc1565b5b60006124828482850161220e565b91505092915050565b6000819050919050565b60006124b06124ab6124a68461219b565b61248b565b61219b565b9050919050565b60006124c282612495565b9050919050565b60006124d4826124b7565b9050919050565b6124e4816124c9565b82525050565b60006020820190506124ff60008301846124db565b92915050565b61250e81612050565b811461251957600080fd5b50565b60008135905061252b81612505565b92915050565b6000806040838503121561254857612547611fc1565b5b60006125568582860161220e565b92505060206125678582860161251c565b9150509250929050565b600067ffffffffffffffff82111561258c5761258b6122c0565b5b612595826120cc565b9050602081019050919050565b60006125b56125b084612571565b612320565b9050828152602081018484840111156125d1576125d06122bb565b5b6125dc84828561236c565b509392505050565b600082601f8301126125f9576125f86122b6565b5b81356126098482602086016125a2565b91505092915050565b6000806000806080858703121561262c5761262b611fc1565b5b600061263a8782880161220e565b945050602061264b8782880161220e565b935050604061265c87828801612159565b925050606085013567ffffffffffffffff81111561267d5761267c611fc6565b5b612689878288016125e4565b91505092959194509250565b6000819050919050565b6126a881612695565b81146126b357600080fd5b50565b6000813590506126c58161269f565b92915050565b6000602082840312156126e1576126e0611fc1565b5b60006126ef848285016126b6565b91505092915050565b6000806040838503121561270f5761270e611fc1565b5b600061271d8582860161220e565b925050602061272e8582860161220e565b9150509250929050565b7f4e487b7100000000000000000000000000000000000000000000000000000000600052602260045260246000fd5b6000600282049050600182168061277f57607f821691505b60208210810361279257612791612738565b5b50919050565b7f4552433732313a20617070726f76616c20746f2063757272656e74206f776e6560008201527f7200000000000000000000000000000000000000000000000000000000000000602082015250565b60006127f4602183612091565b91506127ff82612798565b604082019050919050565b60006020820190508181036000830152612823816127e7565b9050919050565b7f4552433732313a20617070726f76652063616c6c6572206973206e6f7420746f60008201527f6b656e206f776e6572206e6f7220617070726f76656420666f7220616c6c0000602082015250565b6000612886603e83612091565b91506128918261282a565b604082019050919050565b600060208201905081810360008301526128b581612879565b9050919050565b7f4552433732313a2063616c6c6572206973206e6f7420746f6b656e206f776e6560008201527f72206e6f7220617070726f766564000000000000000000000000000000000000602082015250565b6000612918602e83612091565b9150612923826128bc565b604082019050919050565b600060208201905081810360008301526129478161290b565b9050919050565b600081905092915050565b600061296482612086565b61296e818561294e565b935061297e8185602086016120a2565b80840191505092915050565b60006129968284612959565b915081905092915050565b60006129ad8285612959565b91506129b98284612959565b91508190509392505050565b7f4552433732313a20696e76616c696420746f6b656e2049440000000000000000600082015250565b60006129fb601883612091565b9150612a06826129c5565b602082019050919050565b60006020820190508181036000830152612a2a816129ee565b9050919050565b7f4552433732313a2061646472657373207a65726f206973206e6f74206120766160008201527f6c6964206f776e65720000000000000000000000000000000000000000000000602082015250565b6000612a8d602983612091565b9150612a9882612a31565b604082019050919050565b60006020820190508181036000830152612abc81612a80565b9050919050565b6000604082019050612ad86000830185612434565b612ae56020830184612434565b9392505050565b612af581612695565b82525050565b6000602082019050612b106000830184612aec565b92915050565b7f4e487b7100000000000000000000000000000000000000000000000000000000600052601160045260246000fd5b6000612b5082612138565b9150612b5b83612138565b9250828201905080821115612b7357612b72612b16565b5b92915050565b7f4552433732314d657461646174613a2055524920717565727920666f72206e6f60008201527f6e6578697374656e7420746f6b656e0000000000000000000000000000000000602082015250565b6000612bd5602f83612091565b9150612be082612b79565b604082019050919050565b60006020820190508181036000830152612c0481612bc8565b9050919050565b600069ffffffffffffffffffff82169050919050565b612c2a81612c0b565b8114612c3557600080fd5b50565b600081519050612c4781612c21565b92915050565b600081519050612c5c8161269f565b92915050565b600081519050612c7181612142565b92915050565b600080600080600060a08688031215612c9357612c92611fc1565b5b6000612ca188828901612c38565b9550506020612cb288828901612c4d565b9450506040612cc388828901612c62565b9350506060612cd488828901612c62565b9250506080612ce588828901612c38565b9150509295509295909350565b7f7b226e616d65223a220000000000000000000000000000000000000000000000600082015250565b6000612d2860098361294e565b9150612d3382612cf2565b600982019050919050565b7f222c20226465736372697074696f6e223a22416e204e4654207468617420636860008201527f616e676573206261736564206f6e2074686520436861696e6c696e6b2046656560208201527f64222c2000000000000000000000000000000000000000000000000000000000604082015250565b6000612dc060448361294e565b9150612dcb82612d3e565b604482019050919050565b7f2261747472696275746573223a205b7b2274726169745f74797065223a20226360008201527f6f6f6c6e657373222c202276616c7565223a203130307d5d2c2022696d61676560208201527f223a220000000000000000000000000000000000000000000000000000000000604082015250565b6000612e5860438361294e565b9150612e6382612dd6565b604382019050919050565b7f227d000000000000000000000000000000000000000000000000000000000000600082015250565b6000612ea460028361294e565b9150612eaf82612e6e565b600282019050919050565b6000612ec582612d1b565b9150612ed18285612959565b9150612edc82612db3565b9150612ee782612e4b565b9150612ef38284612959565b9150612efe82612e97565b91508190509392505050565b7f4f776e61626c653a206e6577206f776e657220697320746865207a65726f206160008201527f6464726573730000000000000000000000000000000000000000000000000000602082015250565b6000612f66602683612091565b9150612f7182612f0a565b604082019050919050565b60006020820190508181036000830152612f9581612f59565b9050919050565b7f4e487b7100000000000000000000000000000000000000000000000000000000600052601260045260246000fd5b6000612fd682612138565b9150612fe183612138565b925082612ff157612ff0612f9c565b5b828204905092915050565b600061300782612138565b915061301283612138565b925082820261302081612138565b9150828204841483151761303757613036612b16565b5b5092915050565b7f4552433732313a207472616e736665722066726f6d20696e636f72726563742060008201527f6f776e6572000000000000000000000000000000000000000000000000000000602082015250565b600061309a602583612091565b91506130a58261303e565b604082019050919050565b600060208201905081810360008301526130c98161308d565b9050919050565b7f4552433732313a207472616e7366657220746f20746865207a65726f2061646460008201527f7265737300000000000000000000000000000000000000000000000000000000602082015250565b600061312c602483612091565b9150613137826130d0565b604082019050919050565b6000602082019050818103600083015261315b8161311f565b9050919050565b600061316d82612138565b915061317883612138565b92508282039050818111156131905761318f612b16565b5b92915050565b7f4f776e61626c653a2063616c6c6572206973206e6f7420746865206f776e6572600082015250565b60006131cc602083612091565b91506131d782613196565b602082019050919050565b600060208201905081810360008301526131fb816131bf565b9050919050565b7f4552433732313a20617070726f766520746f2063616c6c657200000000000000600082015250565b6000613238601983612091565b915061324382613202565b602082019050919050565b600060208201905081810360008301526132678161322b565b9050919050565b7f4552433732313a207472616e7366657220746f206e6f6e20455243373231526560008201527f63656976657220696d706c656d656e7465720000000000000000000000000000602082015250565b60006132ca603283612091565b91506132d58261326e565b604082019050919050565b600060208201905081810360008301526132f9816132bd565b9050919050565b600081519050919050565b600082825260208201905092915050565b600061332782613300565b613331818561330b565b93506133418185602086016120a2565b61334a816120cc565b840191505092915050565b600060808201905061336a60008301876121cd565b61337760208301866121cd565b6133846040830185612434565b8181036060830152613396818461331c565b905095945050505050565b6000815190506133b081611ff7565b92915050565b6000602082840312156133cc576133cb611fc1565b5b60006133da848285016133a1565b91505092915050565b7f4552433732313a206d696e7420746f20746865207a65726f2061646472657373600082015250565b6000613419602083612091565b9150613424826133e3565b602082019050919050565b600060208201905081810360008301526134488161340c565b9050919050565b7f4552433732313a20746f6b656e20616c7265616479206d696e74656400000000600082015250565b6000613485601c83612091565b91506134908261344f565b602082019050919050565b600060208201905081810360008301526134b481613478565b905091905056fe4142434445464748494a4b4c4d4e4f505152535455565758595a6162636465666768696a6b6c6d6e6f707172737475767778797a303132333435363738392b2fa2646970667358221220282e8343c32a9661a249f4d06fd1062a7393c9ca9894a7c1d08e4eb34b5d926e64736f6c634300081100334142434445464748494a4b4c4d4e4f505152535455565758595a6162636465666768696a6b6c6d6e6f707172737475767778797a303132333435363738392b2f",
  "devdoc": {
    "kind": "dev",
    "methods": {
      "approve(address,uint256)": {
        "details": "See {IERC721-approve}."
      },
      "balanceOf(address)": {
        "details": "See {IERC721-balanceOf}."
      },
      "getApproved(uint256)": {
        "details": "See {IERC721-getApproved}."
      },
      "isApprovedForAll(address,address)": {
        "details": "See {IERC721-isApprovedForAll}."
      },
      "name()": {
        "details": "See {IERC721Metadata-name}."
      },
      "owner()": {
        "details": "Returns the address of the current owner."
      },
      "ownerOf(uint256)": {
        "details": "See {IERC721-ownerOf}."
      },
      "renounceOwnership()": {
        "details": "Leaves the contract without owner. It will not be possible to call `onlyOwner` functions anymore. Can only be called by the current owner. NOTE: Renouncing ownership will leave the contract without an owner, thereby removing any functionality that is only available to the owner."
      },
      "safeTransferFrom(address,address,uint256)": {
        "details": "See {IERC721-safeTransferFrom}."
      },
      "safeTransferFrom(address,address,uint256,bytes)": {
        "details": "See {IERC721-safeTransferFrom}."
      },
      "setApprovalForAll(address,bool)": {
        "details": "See {IERC721-setApprovalForAll}."
      },
      "supportsInterface(bytes4)": {
        "details": "See {IERC165-supportsInterface}."
      },
      "symbol()": {
        "details": "See {IERC721Metadata-symbol}."
      },
      "tokenURI(uint256)": {
        "details": "See {IERC721Metadata-tokenURI}."
      },
      "transferFrom(address,address,uint256)": {
        "details": "See {IERC721-transferFrom}."
      },
      "transferOwnership(address)": {
        "details": "Transfers ownership of the contract to a new account (`newOwner`). Can only be called by the current owner."
      }
    },
    "version": 1
  },
  "userdoc": {
    "kind": "user",
    "methods": {},
    "version": 1
  },
  "storageLayout": {
    "storage": [
      {
        "astId": 1319,
        "contract": "contracts/DynamicSvgNft.sol:DynamicSvgNft",
        "label": "_name",
        "offset": 0,
        "slot": "0",
        "type": "t_string_storage"
      },
      {
        "astId": 1321,
        "contract": "contracts/DynamicSvgNft.sol:DynamicSvgNft",
        "label": "_symbol",
        "offset": 0,
        "slot": "1",
        "type": "t_string_storage"
      },
      {
        "astId": 1325,
        "contract": "contracts/DynamicSvgNft.sol:DynamicSvgNft",
        "label": "_owners",
        "offset": 0,
        "slot": "2",
        "type": "t_mapping(t_uint256,t_address)"
      },
      {
        "astId": 1329,
        "contract": "contracts/DynamicSvgNft.sol:DynamicSvgNft",
        "label": "_balances",
        "offset": 0,
        "slot": "3",
        "type": "t_mapping(t_address,t_uint256)"
      },
      {
        "astId": 1333,
        "contract": "contracts/DynamicSvgNft.sol:DynamicSvgNft",
        "label": "_tokenApprovals",
        "offset": 0,
        "slot": "4",
        "type": "t_mapping(t_uint256,t_address)"
      },
      {
        "astId": 1339,
        "contract": "contracts/DynamicSvgNft.sol:DynamicSvgNft",
        "label": "_operatorApprovals",
        "offset": 0,
        "slot": "5",
        "type": "t_mapping(t_address,t_mapping(t_address,t_bool))"
      },
      {
        "astId": 1188,
        "contract": "contracts/DynamicSvgNft.sol:DynamicSvgNft",
        "label": "_owner",
        "offset": 0,
        "slot": "6",
        "type": "t_address"
      },
      {
        "astId": 3223,
        "contract": "contracts/DynamicSvgNft.sol:DynamicSvgNft",
        "label": "s_tokenCounter",
        "offset": 0,
        "slot": "7",
        "type": "t_uint256"
      },
      {
        "astId": 3225,
        "contract": "contracts/DynamicSvgNft.sol:DynamicSvgNft",
        "label": "s_lowImageURI",
        "offset": 0,
        "slot": "8",
        "type": "t_string_storage"
      },
      {
        "astId": 3227,
        "contract": "contracts/DynamicSvgNft.sol:DynamicSvgNft",
        "label": "s_highImageURI",
        "offset": 0,
        "slot": "9",
        "type": "t_string_storage"
      },
      {
        "astId": 3231,
        "contract": "contracts/DynamicSvgNft.sol:DynamicSvgNft",
        "label": "s_tokenIdToHighValues",
        "offset": 0,
        "slot": "10",
        "type": "t_mapping(t_uint256,t_int256)"
      }
    ],
    "types": {
      "t_address": {
        "encoding": "inplace",
        "label": "address",
        "numberOfBytes": "20"
      },
      "t_bool": {
        "encoding": "inplace",
        "label": "bool",
        "numberOfBytes": "1"
      },
      "t_int256": {
        "encoding": "inplace",
        "label": "int256",
        "numberOfBytes": "32"
      },
      "t_mapping(t_address,t_bool)": {
        "encoding": "mapping",
        "key": "t_address",
        "label": "mapping(address => bool)",
        "numberOfBytes": "32",
        "value": "t_bool"
      },
      "t_mapping(t_address,t_mapping(t_address,t_bool))": {
        "encoding": "mapping",
        "key": "t_address",
        "label": "mapping(address => mapping(address => bool))",
        "numberOfBytes": "32",
        "value": "t_mapping(t_address,t_bool)"
      },
      "t_mapping(t_address,t_uint256)": {
        "encoding": "mapping",
        "key": "t_address",
        "label": "mapping(address => uint256)",
        "numberOfBytes": "32",
        "value": "t_uint256"
      },
      "t_mapping(t_uint256,t_address)": {
        "encoding": "mapping",
        "key": "t_uint256",
        "label": "mapping(uint256 => address)",
        "numberOfBytes": "32",
        "value": "t_address"
      },
      "t_mapping(t_uint256,t_int256)": {
        "encoding": "mapping",
        "key": "t_uint256",
        "label": "mapping(uint256 => int256)",
        "numberOfBytes": "32",
        "value": "t_int256"
      },
      "t_string_storage": {
        "encoding": "bytes",
        "label": "string",
        "numberOfBytes": "32"
      },
      "t_uint256": {
        "encoding": "inplace",
        "label": "uint256",
        "numberOfBytes": "32"
      }
    }
  }
}